:02000000BE2818
:10000800FF00030E8301B3000A08B4008A018B1CA9
:100018000F288B10A00A34088A00330E8300FF0EC5
:040028007F0E09003E
:10002C00710DF80DF90D7408F8027508031C750FA5
:10003C00F902F00DF10D0F30FC00710DF80DF90DFA
:10004C007408701C2F28F8027508031C750FF90230
:10005C003428F80775080318750FF907F00DF10D22
:10006C00FC0B2328701840287408F807750803182F
:08007C00750FF90700000800F0
:0E008400831203132A088A002908820008004C
:1000920042208A110A128000840AA90A0319AA0AB4
:0800A200F003031D49280800CA
:1000AA00831203137408003A031D64287508003A82
:1000BA00031D6428FF30F0007F30F100BD28831251
:1000CA000313FD01F901F8017108700403190034E2
:1000DA0071087506FA00FA1BFD09FB01F51F7A285B
:1000EA00F409F509F40A0319F50AF11F8128F00940
:1000FA00F109F00A0319F10A71087504FA00FA1BEA
:10010A00962816207B18A928FD1F0034F009F1094A
:10011A00F00A0319F10AF809F909F80A0319F90AA0
:10012A000034F51FA528F11BA1287108F9007008F1
:10013A00F800F101F0018928F101F001F00A003418
:10014A00F109F009FB0A8628F80A0319F90A740862
:10015A007802031D892875087902031D8928F90187
:10016A00F801F00A0319F10AF11F89280000FF3487
:02017A0008007B
:10017C0083120313A0010330A100A2010C30A300D1
:10018C00A4011730A500A6018316880183128801EB
:10019C008316860106148312860183160516071032
:1001AC00871087150716831207148714051EDF287E
:1001BC00DC28871DE428061CE428DF2887192F2A51
:1001CC000618E9282F2A2508AB002608AC00803039
:1001DC002C06F00080307002031DF62800302B0234
:1001EC00031C5F29B5013508323C031C5A2906183B
:1001FC000229071487145A290814881008110710AB
:10020C008714881688118030F00080302C0670021C
:10021C00031D12292B08033C031C162988120816EF
:10022C000A30F4000030F5002B08F0002C08F10027
:10023C0055207808F0007908F1007008B6007108B4
:10024C00B7003608AF003708B0000A30F4000030B1
:10025C00F5002B08F0002C08F10055207008B100B7
:10026C007108B2003608F000F00D701070088600AE
:10027C001A30FC00F830FD00FD0B4229FC0B422922
:10028C000000071487103108F000F00D7010700892
:10029C0086001A30FC00F830FD00FD0B5329FC0BD6
:1002AC0053290000B50AF9280130AB02031CAC033A
:1002BC00ED282308AD002408AE0080302E06F00097
:1002CC0080307002031D6C2900302D02031CC729DD
:1002DC00B5013508323C031CC229061878290714CD
:1002EC008714C229081008120710871408158815DE
:1002FC000A30F4000030F5002D08F0002E08F10053
:10030C0055207808F0007908F1007008B6007108E3
:10031C00B7003608AF003708B0000A30F4000030E0
:10032C00F5002D08F0002E08F10055207008B100E2
:10033C007108B2003608F000F00D701070088600DD
:10034C001A30FC00F830FD00FD0BAA29FC0BAA2981
:10035C000000071487103108F000F00D70107008C1
:10036C0086001A30FC00F830FD00FD0BBB29FC0B9D
:10037C00BB290000B50A6F290130AD02031CAE0386
:10038C0063292108A7002208A80080302806F00065
:10039C0080307002031DD42900302702031C2E2A42
:1003AC00B5013508323C031C292A0618E02907142C
:1003BC008714292A881408110710871488150A3005
:1003CC00F4000030F5002708F0002808F100552053
:1003DC007808F0007908F1007008B6007108B700D1
:1003EC003608AF003708B0000A30F4000030F500D2
:1003FC002708F0002808F10055207008B10071089A
:10040C00B2003608F000F00D7010700886001A303B
:10041C00FC00F830FD00FD0B112AFC0B112A00002A
:10042C00071487103108F000F00D7010700886006A
:10043C001A30FC00F830FD00FD0B222AFC0B222A9E
:10044C000000B50AD7290130A702031CA803CB2949
:10045C00E6288B170B168316011783122008013A16
:10046C00031D402A87193B2AE62808148810081116
:10047C00881688112008023A031D682A8719472A12
:10048C00E6288812081408161F30FB007130FC0097
:10049C001E30FD00FD0B502AFC0B502AFB0B502A82
:1004AC00000008100812081588151530FB004B3099
:1004BC00FC00BE30FD00FD0B612AFC0B612AFB0B1E
:1004CC00612A00002008033A031D902A87196F2A1D
:1004DC00E6280811881588141F30FB007130FC00C9
:1004EC001E30FD00FD0B782AFC0B782AFB0B782ABA
:1004FC00000088118810081488161530FB004B304A
:10050C00FC00BE30FD00FD0B892AFC0B892AFB0B7D
:10051C00892A00002008043A031D962A0230A00004
:04052C00332A972AAD
:02400E004A2F37
:00000001FF
